{
  "abi": [
    {
      "inputs": [],
      "stateMutability": "nonpayable",
      "type": "constructor"
    },
    {
      "inputs": [],
      "name": "CannotTransferOwnershipToSelf",
      "type": "error"
    },
    {
      "inputs": [],
      "name": "ERC725X_ContractDeploymentFailed",
      "type": "error"
    },
    {
      "inputs": [],
      "name": "ERC725X_CreateOperationsRequireEmptyRecipientAddress",
      "type": "error"
    },
    {
      "inputs": [],
      "name": "ERC725X_ExecuteParametersLengthMismatch",
      "type": "error"
    },
    {
      "inputs": [
        {
          "internalType": "uint256",
          "name": "balance",
          "type": "uint256"
        },
        {
          "internalType": "uint256",
          "name": "value",
          "type": "uint256"
        }
      ],
      "name": "ERC725X_InsufficientBalance",
      "type": "error"
    },
    {
      "inputs": [],
      "name": "ERC725X_MsgValueDisallowedInDelegateCall",
      "type": "error"
    },
    {
      "inputs": [],
      "name": "ERC725X_MsgValueDisallowedInStaticCall",
      "type": "error"
    },
    {
      "inputs": [],
      "name": "ERC725X_NoContractBytecodeProvided",
      "type": "error"
    },
    {
      "inputs": [
        {
          "internalType": "uint256",
          "name": "operationTypeProvided",
          "type": "uint256"
        }
      ],
      "name": "ERC725X_UnknownOperationType",
      "type": "error"
    },
    {
      "inputs": [
        {
          "internalType": "uint256",
          "name": "dataKeysLength",
          "type": "uint256"
        },
        {
          "internalType": "uint256",
          "name": "dataValuesLength",
          "type": "uint256"
        }
      ],
      "name": "ERC725Y_DataKeysValuesLengthMismatch",
      "type": "error"
    },
    {
      "inputs": [
        {
          "internalType": "bytes4",
          "name": "functionSelector",
          "type": "bytes4"
        }
      ],
      "name": "NoExtensionFoundForFunctionSelector",
      "type": "error"
    },
    {
      "inputs": [
        {
          "internalType": "uint256",
          "name": "renounceOwnershipStart",
          "type": "uint256"
        },
        {
          "internalType": "uint256",
          "name": "renounceOwnershipEnd",
          "type": "uint256"
        }
      ],
      "name": "NotInRenounceOwnershipInterval",
      "type": "error"
    },
    {
      "anonymous": false,
      "inputs": [
        {
          "indexed": true,
          "internalType": "uint256",
          "name": "operationType",
          "type": "uint256"
        },
        {
          "indexed": true,
          "internalType": "address",
          "name": "contractAddress",
          "type": "address"
        },
        {
          "indexed": true,
          "internalType": "uint256",
          "name": "value",
          "type": "uint256"
        },
        {
          "indexed": false,
          "internalType": "bytes32",
          "name": "salt",
          "type": "bytes32"
        }
      ],
      "name": "ContractCreated",
      "type": "event"
    },
    {
      "anonymous": false,
      "inputs": [
        {
          "indexed": true,
          "internalType": "bytes32",
          "name": "dataKey",
          "type": "bytes32"
        },
        {
          "indexed": false,
          "internalType": "bytes",
          "name": "dataValue",
          "type": "bytes"
        }
      ],
      "name": "DataChanged",
      "type": "event"
    },
    {
      "anonymous": false,
      "inputs": [
        {
          "indexed": true,
          "internalType": "uint256",
          "name": "operationType",
          "type": "uint256"
        },
        {
          "indexed": true,
          "internalType": "address",
          "name": "target",
          "type": "address"
        },
        {
          "indexed": true,
          "internalType": "uint256",
          "name": "value",
          "type": "uint256"
        },
        {
          "indexed": false,
          "internalType": "bytes4",
          "name": "selector",
          "type": "bytes4"
        }
      ],
      "name": "Executed",
      "type": "event"
    },
    {
      "anonymous": false,
      "inputs": [
        {
          "indexed": false,
          "internalType": "uint8",
          "name": "version",
          "type": "uint8"
        }
      ],
      "name": "Initialized",
      "type": "event"
    },
    {
      "anonymous": false,
      "inputs": [],
      "name": "OwnershipRenounced",
      "type": "event"
    },
    {
      "anonymous": false,
      "inputs": [
        {
          "indexed": true,
          "internalType": "address",
          "name": "previousOwner",
          "type": "address"
        },
        {
          "indexed": true,
          "internalType": "address",
          "name": "newOwner",
          "type": "address"
        }
      ],
      "name": "OwnershipTransferStarted",
      "type": "event"
    },
    {
      "anonymous": false,
      "inputs": [
        {
          "indexed": true,
          "internalType": "address",
          "name": "previousOwner",
          "type": "address"
        },
        {
          "indexed": true,
          "internalType": "address",
          "name": "newOwner",
          "type": "address"
        }
      ],
      "name": "OwnershipTransferred",
      "type": "event"
    },
    {
      "anonymous": false,
      "inputs": [],
      "name": "RenounceOwnershipStarted",
      "type": "event"
    },
    {
      "anonymous": false,
      "inputs": [
        {
          "indexed": true,
          "internalType": "address",
          "name": "from",
          "type": "address"
        },
        {
          "indexed": true,
          "internalType": "uint256",
          "name": "value",
          "type": "uint256"
        },
        {
          "indexed": true,
          "internalType": "bytes32",
          "name": "typeId",
          "type": "bytes32"
        },
        {
          "indexed": false,
          "internalType": "bytes",
          "name": "receivedData",
          "type": "bytes"
        },
        {
          "indexed": false,
          "internalType": "bytes",
          "name": "returnedValue",
          "type": "bytes"
        }
      ],
      "name": "UniversalReceiver",
      "type": "event"
    },
    {
      "anonymous": false,
      "inputs": [
        {
          "indexed": true,
          "internalType": "address",
          "name": "sender",
          "type": "address"
        },
        {
          "indexed": true,
          "internalType": "uint256",
          "name": "value",
          "type": "uint256"
        }
      ],
      "name": "ValueReceived",
      "type": "event"
    },
    {
      "stateMutability": "payable",
      "type": "fallback"
    },
    {
      "inputs": [],
      "name": "RENOUNCE_OWNERSHIP_CONFIRMATION_DELAY",
      "outputs": [
        {
          "internalType": "uint256",
          "name": "",
          "type": "uint256"
        }
      ],
      "stateMutability": "view",
      "type": "function"
    },
    {
      "inputs": [],
      "name": "RENOUNCE_OWNERSHIP_CONFIRMATION_PERIOD",
      "outputs": [
        {
          "internalType": "uint256",
          "name": "",
          "type": "uint256"
        }
      ],
      "stateMutability": "view",
      "type": "function"
    },
    {
      "inputs": [],
      "name": "acceptOwnership",
      "outputs": [],
      "stateMutability": "nonpayable",
      "type": "function"
    },
    {
      "inputs": [
        {
          "internalType": "uint256[]",
          "name": "operationsType",
          "type": "uint256[]"
        },
        {
          "internalType": "address[]",
          "name": "targets",
          "type": "address[]"
        },
        {
          "internalType": "uint256[]",
          "name": "values",
          "type": "uint256[]"
        },
        {
          "internalType": "bytes[]",
          "name": "datas",
          "type": "bytes[]"
        }
      ],
      "name": "execute",
      "outputs": [
        {
          "internalType": "bytes[]",
          "name": "",
          "type": "bytes[]"
        }
      ],
      "stateMutability": "payable",
      "type": "function"
    },
    {
      "inputs": [
        {
          "internalType": "uint256",
          "name": "operationType",
          "type": "uint256"
        },
        {
          "internalType": "address",
          "name": "target",
          "type": "address"
        },
        {
          "internalType": "uint256",
          "name": "value",
          "type": "uint256"
        },
        {
          "internalType": "bytes",
          "name": "data",
          "type": "bytes"
        }
      ],
      "name": "execute",
      "outputs": [
        {
          "internalType": "bytes",
          "name": "",
          "type": "bytes"
        }
      ],
      "stateMutability": "payable",
      "type": "function"
    },
    {
      "inputs": [
        {
          "internalType": "bytes32[]",
          "name": "dataKeys",
          "type": "bytes32[]"
        }
      ],
      "name": "getData",
      "outputs": [
        {
          "internalType": "bytes[]",
          "name": "dataValues",
          "type": "bytes[]"
        }
      ],
      "stateMutability": "view",
      "type": "function"
    },
    {
      "inputs": [
        {
          "internalType": "bytes32",
          "name": "dataKey",
          "type": "bytes32"
        }
      ],
      "name": "getData",
      "outputs": [
        {
          "internalType": "bytes",
          "name": "dataValue",
          "type": "bytes"
        }
      ],
      "stateMutability": "view",
      "type": "function"
    },
    {
      "inputs": [
        {
          "internalType": "address",
          "name": "newOwner",
          "type": "address"
        },
        {
          "internalType": "bytes32",
          "name": "dataKey",
          "type": "bytes32"
        },
        {
          "internalType": "bytes",
          "name": "dataValue",
          "type": "bytes"
        }
      ],
      "name": "initialize",
      "outputs": [],
      "stateMutability": "payable",
      "type": "function"
    },
    {
      "inputs": [
        {
          "internalType": "bytes32",
          "name": "dataHash",
          "type": "bytes32"
        },
        {
          "internalType": "bytes",
          "name": "signature",
          "type": "bytes"
        }
      ],
      "name": "isValidSignature",
      "outputs": [
        {
          "internalType": "bytes4",
          "name": "magicValue",
          "type": "bytes4"
        }
      ],
      "stateMutability": "view",
      "type": "function"
    },
    {
      "inputs": [
        {
          "internalType": "address",
          "name": "",
          "type": "address"
        },
        {
          "internalType": "address",
          "name": "",
          "type": "address"
        },
        {
          "internalType": "uint256[]",
          "name": "",
          "type": "uint256[]"
        },
        {
          "internalType": "uint256[]",
          "name": "",
          "type": "uint256[]"
        },
        {
          "internalType": "bytes",
          "name": "",
          "type": "bytes"
        }
      ],
      "name": "onERC1155BatchReceived",
      "outputs": [
        {
          "internalType": "bytes4",
          "name": "",
          "type": "bytes4"
        }
      ],
      "stateMutability": "nonpayable",
      "type": "function"
    },
    {
      "inputs": [
        {
          "internalType": "address",
          "name": "",
          "type": "address"
        },
        {
          "internalType": "address",
          "name": "",
          "type": "address"
        },
        {
          "internalType": "uint256",
          "name": "",
          "type": "uint256"
        },
        {
          "internalType": "uint256",
          "name": "",
          "type": "uint256"
        },
        {
          "internalType": "bytes",
          "name": "",
          "type": "bytes"
        }
      ],
      "name": "onERC1155Received",
      "outputs": [
        {
          "internalType": "bytes4",
          "name": "",
          "type": "bytes4"
        }
      ],
      "stateMutability": "nonpayable",
      "type": "function"
    },
    {
      "inputs": [
        {
          "internalType": "address",
          "name": "",
          "type": "address"
        },
        {
          "internalType": "address",
          "name": "",
          "type": "address"
        },
        {
          "internalType": "uint256",
          "name": "",
          "type": "uint256"
        },
        {
          "internalType": "bytes",
          "name": "",
          "type": "bytes"
        }
      ],
      "name": "onERC721Received",
      "outputs": [
        {
          "internalType": "bytes4",
          "name": "",
          "type": "bytes4"
        }
      ],
      "stateMutability": "nonpayable",
      "type": "function"
    },
    {
      "inputs": [],
      "name": "owner",
      "outputs": [
        {
          "internalType": "address",
          "name": "",
          "type": "address"
        }
      ],
      "stateMutability": "view",
      "type": "function"
    },
    {
      "inputs": [],
      "name": "pendingOwner",
      "outputs": [
        {
          "internalType": "address",
          "name": "",
          "type": "address"
        }
      ],
      "stateMutability": "view",
      "type": "function"
    },
    {
      "inputs": [],
      "name": "renounceOwnership",
      "outputs": [],
      "stateMutability": "nonpayable",
      "type": "function"
    },
    {
      "inputs": [
        {
          "internalType": "bytes32[]",
          "name": "dataKeys",
          "type": "bytes32[]"
        },
        {
          "internalType": "bytes[]",
          "name": "dataValues",
          "type": "bytes[]"
        }
      ],
      "name": "setData",
      "outputs": [],
      "stateMutability": "nonpayable",
      "type": "function"
    },
    {
      "inputs": [
        {
          "internalType": "bytes32",
          "name": "dataKey",
          "type": "bytes32"
        },
        {
          "internalType": "bytes",
          "name": "dataValue",
          "type": "bytes"
        }
      ],
      "name": "setData",
      "outputs": [],
      "stateMutability": "nonpayable",
      "type": "function"
    },
    {
      "inputs": [
        {
          "internalType": "bytes4",
          "name": "interfaceId",
          "type": "bytes4"
        }
      ],
      "name": "supportsInterface",
      "outputs": [
        {
          "internalType": "bool",
          "name": "",
          "type": "bool"
        }
      ],
      "stateMutability": "view",
      "type": "function"
    },
    {
      "inputs": [
        {
          "internalType": "address",
          "name": "_newOwner",
          "type": "address"
        }
      ],
      "name": "transferOwnership",
      "outputs": [],
      "stateMutability": "nonpayable",
      "type": "function"
    },
    {
      "inputs": [
        {
          "internalType": "bytes32",
          "name": "typeId",
          "type": "bytes32"
        },
        {
          "internalType": "bytes",
          "name": "receivedData",
          "type": "bytes"
        }
      ],
      "name": "universalReceiver",
      "outputs": [
        {
          "internalType": "bytes",
          "name": "returnedValues",
          "type": "bytes"
        }
      ],
      "stateMutability": "payable",
      "type": "function"
    },
    {
      "stateMutability": "payable",
      "type": "receive"
    }
  ],
  "bytecode": {
    "object": "0x60806040523480156200001157600080fd5b506200001c62000022565b620000e4565b600054610100900460ff16156200008f5760405162461bcd60e51b815260206004820152602760248201527f496e697469616c697a61626c653a20636f6e747261637420697320696e697469604482015266616c697a696e6760c81b606482015260840160405180910390fd5b60005460ff9081161015620000e2576000805460ff191660ff9081179091556040519081527f7f26b83ff96e1f2b6a682f133852f6798a09c465da95921460cefb38474024989060200160405180910390a15b565b612d0480620000f46000396000f3fe6080604052600436106101235760003560e01c8063715018a6116100a0578063bc197c8111610064578063bc197c811461038e578063e30c3978146103ba578063ead3fbdf14610196578063f23a6e61146103d8578063f2fde38b146104045761014c565b8063715018a6146102f957806379ba50971461030e5780637f23690c146103235780638da5cb5b1461034357806398609bd51461037b5761014c565b80631626ba7e116100e75780631626ba7e1461026657806344c028fe146102865780634e3e6e9c146102a657806354f6127f146102c65780636bb56a14146102e65761014c565b806301bfba611461019657806301ffc9a7146101be57806313ced88d146101ee57806314a6e2931461020e578063150b7a021461022e5761014c565b3661014c57341561014a5760405134903390600080516020612caf83398151915290600090a35b005b341561016e5760405134903390600080516020612caf83398151915290600090a35b600436108061018757506000356001600160e01b031916155b1561018e57005b61014a610424565b3480156101a257600080fd5b506101ab606481565b6040519081526020015b60405180910390f35b3480156101ca57600080fd5b506101de6101d936600461219c565b6104b4565b60405190151581526020016101b5565b6102016101fc3660046123ad565b6104c5565b6040516101b59190612504565b34801561021a57600080fd5b5061014a610229366004612566565b610508565b34801561023a57600080fd5b506102596102493660046125c9565b630a85bd0160e11b949350505050565b6040516101b59190612624565b34801561027257600080fd5b50610259610281366004612639565b61058f565b610299610294366004612675565b6106f4565b6040516101b5919061269b565b3480156102b257600080fd5b506102016102c13660046126ae565b61072c565b3480156102d257600080fd5b506102996102e13660046126e2565b6107df565b6102996102f43660046126fb565b6107ea565b34801561030557600080fd5b5061014a610974565b34801561031a57600080fd5b5061014a610986565b34801561032f57600080fd5b5061014a61033e366004612639565b61098e565b34801561034f57600080fd5b506000546201000090046001600160a01b03165b6040516001600160a01b0390911681526020016101b5565b61014a610389366004612776565b6109a4565b34801561039a57600080fd5b506102596103a93660046127cc565b63bc197c8160e01b95945050505050565b3480156103c657600080fd5b506003546001600160a01b0316610363565b3480156103e457600080fd5b506102596103f3366004612875565b63f23a6e6160e01b95945050505050565b34801561041057600080fd5b5061014a61041f3660046128d9565b610ac3565b600061043b6000356001600160e01b031916610ad7565b90506001600160a01b03811661047b576000356001600160e01b03191660405163bb370b2b60e01b81526004016104729190612624565b60405180910390fd5b36600080373360601b365234601436015260008060343601600080855af13d6000803e8080156104aa573d6000f35b3d6000fd5b505050565b60006104bf82610b1c565b92915050565b60606104cf610b41565b34156104f15760405134903390600080516020612caf83398151915290600090a35b6104fd85858585610ba2565b90505b949350505050565b610510610b41565b805182511461053f57815181516040516321d1e13360e11b815260048101929092526024820152604401610472565b60005b82518110156104af57610587838281518110610560576105606128f4565b602002602001015183838151811061057a5761057a6128f4565b6020026020010151610ce6565b600101610542565b600080546201000090046001600160a01b0316803b156106b457600080826001600160a01b0316631626ba7e60e01b87876040516024016105d192919061290a565b60408051601f198184030181529181526020820180516001600160e01b03166001600160e01b031990941693909317909252905161060f9190612923565b600060405180830381855afa9150503d806000811461064a576040519150601f19603f3d011682016040523d82523d6000602084013e61064f565b606091505b50915091506000828015610664575081516020145b801561068b57508151630b135d3f60e11b90610689908401602090810190850161293f565b145b9050806106a0576001600160e01b03196106a9565b630b135d3f60e11b5b9450505050506104bf565b6106be8484610d5a565b6001600160a01b0316816001600160a01b0316146106e4576001600160e01b0319610500565b630b135d3f60e11b949350505050565b60606106fe610b41565b34156107205760405134903390600080516020612caf83398151915290600090a35b6104fd85858585610d7e565b606081516001600160401b03811115610747576107476121c6565b60405190808252806020026020018201604052801561077a57816020015b60608152602001906001900390816107655790505b50905060005b82518110156107d9576107ab83828151811061079e5761079e6128f4565b6020026020010151610e89565b8282815181106107bd576107bd6128f4565b60200260200101819052506107d28160010190565b9050610780565b50919050565b60606104bf82610e89565b6060341561080e5760405134903390600080516020612caf83398151915290600090a35b60006108397f0cfc51aec37c55a4d0b1a65c6255c4bf2fbdf6277f3cc0730c45b828b6db8b47610e89565b90506060601482511061088857600061085183612958565b60601c905061086781631aed5a8560e21b610f2b565b15610886576108836001600160a01b0382168888883334610fbf565b91505b505b60006108a1690cfc51aec37c55a4d0b160b01b88611107565b905060006108ae82610e89565b9050606060148251106108fd5760006108c683612958565b60601c90506108dc81631aed5a8560e21b610f2b565b156108fb576108f86001600160a01b0382168b8b8b3334610fbf565b91505b505b838160405160200161091092919061298f565b60405160208183030381529060405295508834336001600160a01b03167f9c3ba68eb5742b8e3961aea0afc7371a71bf433c8a67a831803b64c064a178c28b8b8b604051610960939291906129dd565b60405180910390a450505050509392505050565b61097c610b41565b610984611153565b565b61098461123b565b610996610b41565b6109a08282610ce6565b5050565b600054610100900460ff16158080156109c45750600054600160ff909116105b806109de5750303b1580156109de575060005460ff166001145b610a415760405162461bcd60e51b815260206004820152602e60248201527f496e697469616c697a61626c653a20636f6e747261637420697320616c72656160448201526d191e481a5b9a5d1a585b1a5e995960921b6064820152608401610472565b6000805460ff191660011790558015610a64576000805461ff0019166101001790555b610a6d84611301565b610a778383610ce6565b8015610abd576000805461ff0019169055604051600181527f7f26b83ff96e1f2b6a682f133852f6798a09c465da95921460cefb38474024989060200160405180910390a15b50505050565b610acb610b41565b610ad481611397565b50565b600080610afb696773c5a04a6d4300884b60b11b6001600160e01b03198516611107565b90506000610b0882610e89565b610b1190612958565b60601c949350505050565b60006001600160e01b03198216630271189760e51b14806104bf57506104bf826114e1565b6000546001600160a01b03620100009091041633146109845760405162461bcd60e51b815260206004820181905260248201527f4f776e61626c653a2063616c6c6572206973206e6f7420746865206f776e65726044820152606401610472565b606083518551141580610bc3575082518451141580610bc357508151835114155b15610be157604051633ff55f4d60e01b815260040160405180910390fd5b600085516001600160401b03811115610bfc57610bfc6121c6565b604051908082528060200260200182016040528015610c2f57816020015b6060815260200190600190039081610c1a5790505b50905060005b8651811015610cdc57610cae878281518110610c5357610c536128f4565b6020026020010151878381518110610c6d57610c6d6128f4565b6020026020010151878481518110610c8757610c876128f4565b6020026020010151878581518110610ca157610ca16128f4565b6020026020010151610d7e565b828281518110610cc057610cc06128f4565b6020026020010181905250610cd58160010190565b9050610c35565b5095945050505050565b6000828152600160205260409020610cfe8282612a85565b50817fece574603820d07bc9b91f2a932baadf4628aabcb8afba49776529c14a6104b261010083511115610d3f57610d3a836000610100611566565b610d41565b825b604051610d4e919061269b565b60405180910390a25050565b6000806000610d698585611675565b91509150610d76816116ba565b509392505050565b606084610d9757610d90848484611804565b9050610500565b60018503610dd1576001600160a01b03841615610dc757604051631820c12560e11b815260040160405180910390fd5b610d908383611922565b60028503610e0b576001600160a01b03841615610e0157604051631820c12560e11b815260040160405180910390fd5b610d908383611a1e565b60038503610e3c578215610e32576040516339795e3560e11b815260040160405180910390fd5b610d908483611b04565b60048503610e6d578215610e6357604051635ac8313560e01b815260040160405180910390fd5b610d908483611bf5565b604051631d60ecef60e21b815260048101869052602401610472565b6000818152600160205260409020805460609190610ea690612a03565b80601f0160208091040260200160405190810160405280929190818152602001828054610ed290612a03565b8015610f1f5780601f10610ef457610100808354040283529160200191610f1f565b820191906000526020600020905b815481529060010190602001808311610f0257829003601f168201915b50505050509050919050565b6000806301ffc9a760e01b83604051602401610f479190612624565b604051602081830303815290604052906001600160e01b0319166020820180516001600160e01b03838183161783525050505090506000806000602060008551602087018a617530fa92503d91506000519050828015610fa8575060208210155b8015610fb45750600081115b979650505050505050565b60606000636bb56a1460e01b878787604051602401610fe093929190612b44565b60408051601f19818403018152918152602080830180516001600160e01b03166001600160e01b03199095169490941790935251611022928791879101612b5e565b6040516020818303038152906040529050600080896001600160a01b03168360405161104e9190612923565b6000604051808303816000865af19150503d806000811461108b576040519150601f19603f3d011682016040523d82523d6000602084013e611090565b606091505b50915091506110d582826040518060400160405280602081526020017f43616c6c20746f20756e6976657273616c5265636569766572206661696c6564815250611c9a565b5080516000036110e557806110f9565b808060200190518101906110f99190612b98565b9a9950505050505050505050565b604080516001600160b01b0319841660208201526000602a82018190526001600160601b03198416602c8301529182910160405160208183030381529060405290508061050090612c05565b600254439060009061116790606490612c3f565b90506000611176606483612c3f565b9050808311156111c3576002839055600380546001600160a01b03191690556040517f81b7f830f1f0084db6497c486cbe6974c86488dcc4e3738eab94ab6d6b1653e790600090a1505050565b818310156111ee57604051638b9bf50760e01b81526004810183905260248101829052604401610472565b6111f86000611cb3565b60006002819055600380546001600160a01b03191690556040517fd1f66c3d2bc1993a86be5e3d33709d98f0442381befcedd29f578b9b2506b1ce9190a1505050565b6003546001600160a01b031633146112a35760405162461bcd60e51b815260206004820152602560248201527f4c535031343a2063616c6c6572206973206e6f74207468652070656e64696e6760448201526427bbb732b960d91b6064820152608401610472565b6000546201000090046001600160a01b03166112be33611cb3565b600380546001600160a01b03191690556040805160208101909152600081526112e8908290611d29565b610ad43360405180602001604052806000815250611dd4565b600054610100900460ff1661136c5760405162461bcd60e51b815260206004820152602b60248201527f496e697469616c697a61626c653a20636f6e7472616374206973206e6f74206960448201526a6e697469616c697a696e6760a81b6064820152608401610472565b341561138e5760405134903390600080516020612caf83398151915290600090a35b610ad481611cb3565b306001600160a01b038216036113c0576040516343b248cd60e01b815260040160405180910390fd5b600380546001600160a01b0383166001600160a01b0319909116179055600060028190556113fd6000546001600160a01b03620100009091041690565b9050816001600160a01b0316816001600160a01b03167f38d16b8cac22d99fc7c124b9cd0de2d3fa1faef420bfe791d8c362d765e2270060405160405180910390a36114588260405180602001604052806000815250611e38565b6000546001600160a01b038281166201000090920416146109a05760405162461bcd60e51b815260206004820152603f60248201527f4c535031343a206e65774f776e6572204d55535420616363657074206f776e6560448201527f727368697020696e2061207365706172617465207472616e73616374696f6e006064820152608401610472565b60006001600160e01b03198216630b135d3f60e11b148061151257506001600160e01b03198216636676749760e01b145b8061152d57506001600160e01b03198216631aed5a8560e21b145b8061154857506001600160e01b031982166394be599960e01b145b80611557575061155782611e9c565b806104bf57506104bf82611ec1565b60608161157481601f612c3f565b10156115b35760405162461bcd60e51b815260206004820152600e60248201526d736c6963655f6f766572666c6f7760901b6044820152606401610472565b6115bd8284612c3f565b845110156116015760405162461bcd60e51b8152602060048201526011602482015270736c6963655f6f75744f66426f756e647360781b6044820152606401610472565b606082158015611620576040519150600082526020820160405261166a565b6040519150601f8416801560200281840101858101878315602002848b0101015b81831015611659578051835260209283019201611641565b5050858452601f01601f1916604052505b5090505b9392505050565b60008082516041036116ab5760208301516040840151606085015160001a61169f87828585611ef7565b945094505050506116b3565b506000905060025b9250929050565b60008160048111156116ce576116ce612c52565b036116d65750565b60018160048111156116ea576116ea612c52565b036117375760405162461bcd60e51b815260206004820152601860248201527f45434453413a20696e76616c6964207369676e617475726500000000000000006044820152606401610472565b600281600481111561174b5761174b612c52565b036117985760405162461bcd60e51b815260206004820152601f60248201527f45434453413a20696e76616c6964207369676e6174757265206c656e677468006044820152606401610472565b60038160048111156117ac576117ac612c52565b03610ad45760405162461bcd60e51b815260206004820152602260248201527f45434453413a20696e76616c6964207369676e6174757265202773272076616c604482015261756560f01b6064820152608401610472565b606082471015611830576040516301bf351f60e31b815247600482015260248101849052604401610472565b826001600160a01b03851660007f4810874456b8e6487bd861375cf6abd8e1c8bb5858c8ce36a86a04dabfac199e61186786612c68565b6040516118749190612624565b60405180910390a4600080856001600160a01b031685856040516118989190612923565b60006040518083038185875af1925050503d80600081146118d5576040519150601f19603f3d011682016040523d82523d6000602084013e6118da565b606091505b509150915061191882826040518060400160405280601681526020017522a9219b991aac1d102ab735b737bbb71022b93937b960511b815250611c9a565b9695505050505050565b60608247101561194e576040516301bf351f60e31b815247600482015260248101849052604401610472565b81516000036119705760405163b81cd8d960e01b815260040160405180910390fd5b600082516020840185f090506001600160a01b0381166119a357604051630b07489b60e01b815260040160405180910390fd5b6040516001600160601b0319606083901b166020820152603401604051602081830303815290604052915083816001600160a01b031660017fa1fb700aaee2ae4a2ff6f91ce7eba292f89c2f5488b8ec4c5c5c8150692595c36000801b604051611a0f91815260200190565b60405180910390a45092915050565b60608151600003611a425760405163b81cd8d960e01b815260040160405180910390fd5b6000611a5b8360208551611a569190612c9b565b611fbb565b90506000611a7884600060208751611a739190612c9b565b611566565b90506000611a87868484612019565b6040516001600160601b0319606083901b166020820152909150603401604051602081830303815290604052935085816001600160a01b031660027fa1fb700aaee2ae4a2ff6f91ce7eba292f89c2f5488b8ec4c5c5c8150692595c386604051611af391815260200190565b60405180910390a450505092915050565b606060006001600160a01b03841660037f4810874456b8e6487bd861375cf6abd8e1c8bb5858c8ce36a86a04dabfac199e611b3e86612c68565b604051611b4b9190612624565b60405180910390a4600080846001600160a01b031684604051611b6e9190612923565b600060405180830381855afa9150503d8060008114611ba9576040519150601f19603f3d011682016040523d82523d6000602084013e611bae565b606091505b5091509150611bec82826040518060400160405280601681526020017522a9219b991aac1d102ab735b737bbb71022b93937b960511b815250611c9a565b95945050505050565b606060006001600160a01b03841660047f4810874456b8e6487bd861375cf6abd8e1c8bb5858c8ce36a86a04dabfac199e611c2f86612c68565b604051611c3c9190612624565b60405180910390a4600080846001600160a01b031684604051611c5f9190612923565b600060405180830381855af49150503d8060008114611ba9576040519150601f19603f3d011682016040523d82523d6000602084013e611bae565b60608315611ca957508161166e565b61166e838361211d565b6000546001600160a01b03828116620100009092041614610ad457600080546001600160a01b038381166201000081810262010000600160b01b0319851617855560405193049190911692909183917f8be0079c531659141344cd1fd0a4f28419497f9722a3daafe3b4186f6b6457e091a35050565b611d3a82631aed5a8560e21b610f2b565b156109a057604051631aed5a8560e21b81526001600160a01b03831690636bb56a1490611d8d907fa4e59c931d14f7c8a7a35027f92ee40b5f2886b9fdcdb78f30bc5ecce5a2f81490859060040161290a565b6000604051808303816000875af1158015611dac573d6000803e3d6000fd5b505050506040513d6000823e601f3d908101601f191682016040526104af9190810190612b98565b611de582631aed5a8560e21b610f2b565b156109a057604051631aed5a8560e21b81526001600160a01b03831690636bb56a1490611d8d907fceca317f109c43507871523e82dc2a3cc64dfa18f12da0b6db14f6e23f99553890859060040161290a565b611e4982631aed5a8560e21b610f2b565b156109a057604051631aed5a8560e21b81526001600160a01b03831690636bb56a1490611d8d907fe17117c9d2665d1dbeb479ed8058bbebde3c50ac50e2e65619f60006caac692690859060040161290a565b60006001600160e01b0319821663a918fa6b60e01b14806104bf57506104bf82612147565b600080611ed46301ffc9a760e01b610ad7565b90506001600160a01b038116611eed5750600092915050565b61166e8184610f2b565b6000807f7fffffffffffffffffffffffffffffff5d576e7357a4501ddfe92f46681b20a0831115611f2e5750600090506003611fb2565b6040805160008082526020820180845289905260ff881692820192909252606081018690526080810185905260019060a0016020604051602081039080840390855afa158015611f82573d6000803e3d6000fd5b5050604051601f1901519150506001600160a01b038116611fab57600060019250925050611fb2565b9150600090505b94509492505050565b6000611fc8826020612c3f565b835110156120105760405162461bcd60e51b8152602060048201526015602482015274746f427974657333325f6f75744f66426f756e647360581b6044820152606401610472565b50016020015190565b60008347101561206b5760405162461bcd60e51b815260206004820152601d60248201527f437265617465323a20696e73756666696369656e742062616c616e63650000006044820152606401610472565b81516000036120bc5760405162461bcd60e51b815260206004820181905260248201527f437265617465323a2062797465636f6465206c656e677468206973207a65726f6044820152606401610472565b8282516020840186f590506001600160a01b03811661166e5760405162461bcd60e51b815260206004820152601960248201527f437265617465323a204661696c6564206f6e206465706c6f79000000000000006044820152606401610472565b81511561212d5781518083602001fd5b8060405162461bcd60e51b8152600401610472919061269b565b60006001600160e01b03198216631c537ddf60e21b14806104bf57506104bf8260006001600160e01b0319821663570ef07360e01b14806104bf57506301ffc9a760e01b6001600160e01b03198316146104bf565b6000602082840312156121ae57600080fd5b81356001600160e01b03198116811461166e57600080fd5b634e487b7160e01b600052604160045260246000fd5b604051601f8201601f191681016001600160401b0381118282101715612204576122046121c6565b604052919050565b60006001600160401b03821115612225576122256121c6565b5060051b60200190565b600082601f83011261224057600080fd5b813560206122556122508361220c565b6121dc565b82815260059290921b8401810191818101908684111561227457600080fd5b8286015b8481101561228f5780358352918301918301612278565b509695505050505050565b80356001600160a01b03811681146122b157600080fd5b919050565b60006001600160401b038211156122cf576122cf6121c6565b50601f01601f191660200190565b600082601f8301126122ee57600080fd5b81356122fc612250826122b6565b81815284602083860101111561231157600080fd5b816020850160208301376000918101602001919091529392505050565b600082601f83011261233f57600080fd5b8135602061234f6122508361220c565b82815260059290921b8401810191818101908684111561236e57600080fd5b8286015b8481101561228f5780356001600160401b038111156123915760008081fd5b61239f8986838b01016122dd565b845250918301918301612372565b600080600080608085870312156123c357600080fd5b84356001600160401b03808211156123da57600080fd5b6123e68883890161222f565b95506020915081870135818111156123fd57600080fd5b8701601f8101891361240e57600080fd5b803561241c6122508261220c565b81815260059190911b8201840190848101908b83111561243b57600080fd5b928501925b82841015612460576124518461229a565b82529285019290850190612440565b9750505050604087013591508082111561247957600080fd5b6124858883890161222f565b9350606087013591508082111561249b57600080fd5b506124a88782880161232e565b91505092959194509250565b60005b838110156124cf5781810151838201526020016124b7565b50506000910152565b600081518084526124f08160208601602086016124b4565b601f01601f19169290920160200192915050565b6000602080830181845280855180835260408601915060408160051b870101925083870160005b8281101561255957603f198886030184526125478583516124d8565b9450928501929085019060010161252b565b5092979650505050505050565b6000806040838503121561257957600080fd5b82356001600160401b038082111561259057600080fd5b61259c8683870161222f565b935060208501359150808211156125b257600080fd5b506125bf8582860161232e565b9150509250929050565b600080600080608085870312156125df57600080fd5b6125e88561229a565b93506125f66020860161229a565b92506040850135915060608501356001600160401b0381111561261857600080fd5b6124a8878288016122dd565b6001600160e01b031991909116815260200190565b6000806040838503121561264c57600080fd5b8235915060208301356001600160401b0381111561266957600080fd5b6125bf858286016122dd565b6000806000806080858703121561268b57600080fd5b843593506125f66020860161229a565b60208152600061166e60208301846124d8565b6000602082840312156126c057600080fd5b81356001600160401b038111156126d657600080fd5b6105008482850161222f565b6000602082840312156126f457600080fd5b5035919050565b60008060006040848603121561271057600080fd5b8335925060208401356001600160401b038082111561272e57600080fd5b818601915086601f83011261274257600080fd5b81358181111561275157600080fd5b87602082850101111561276357600080fd5b6020830194508093505050509250925092565b60008060006060848603121561278b57600080fd5b6127948461229a565b92506020840135915060408401356001600160401b038111156127b657600080fd5b6127c2868287016122dd565b9150509250925092565b600080600080600060a086880312156127e457600080fd5b6127ed8661229a565b94506127fb6020870161229a565b935060408601356001600160401b038082111561281757600080fd5b61282389838a0161222f565b9450606088013591508082111561283957600080fd5b61284589838a0161222f565b9350608088013591508082111561285b57600080fd5b50612868888289016122dd565b9150509295509295909350565b600080600080600060a0868803121561288d57600080fd5b6128968661229a565b94506128a46020870161229a565b9350604086013592506060860135915060808601356001600160401b038111156128cd57600080fd5b612868888289016122dd565b6000602082840312156128eb57600080fd5b61166e8261229a565b634e487b7160e01b600052603260045260246000fd5b82815260406020820152600061050060408301846124d8565b600082516129358184602087016124b4565b9190910192915050565b60006020828403121561295157600080fd5b5051919050565b805160208201516001600160601b031980821692919060148310156129875780818460140360031b1b83161693505b505050919050565b6040815260006129a260408301856124d8565b8281036020840152611bec81856124d8565b81835281816020850137506000828201602090810191909152601f909101601f19169091010190565b6040815260006129f16040830185876129b4565b828103602084015261191881856124d8565b600181811c90821680612a1757607f821691505b6020821081036107d957634e487b7160e01b600052602260045260246000fd5b601f8211156104af57600081815260208120601f850160051c81016020861015612a5e5750805b601f850160051c820191505b81811015612a7d57828155600101612a6a565b505050505050565b81516001600160401b03811115612a9e57612a9e6121c6565b612ab281612aac8454612a03565b84612a37565b602080601f831160018114612ae75760008415612acf5750858301515b600019600386901b1c1916600185901b178555612a7d565b600085815260208120601f198616915b82811015612b1657888601518255948401946001909101908401612af7565b5085821015612b345787850151600019600388901b60f8161c191681555b5050505050600190811b01905550565b8381526040602082015260006104fd6040830184866129b4565b60008451612b708184602089016124b4565b60609490941b6001600160601b03191691909301908152601481019190915260340192915050565b600060208284031215612baa57600080fd5b81516001600160401b03811115612bc057600080fd5b8201601f81018413612bd157600080fd5b8051612bdf612250826122b6565b818152856020838501011115612bf457600080fd5b611bec8260208301602086016124b4565b805160208083015191908110156107d95760001960209190910360031b1b16919050565b634e487b7160e01b600052601160045260246000fd5b808201808211156104bf576104bf612c29565b634e487b7160e01b600052602160045260246000fd5b805160208201516001600160e01b031980821692919060048310156129875760049290920360031b82901b161692915050565b818103818111156104bf576104bf612c2956fe7e71433ddf847725166244795048ecf3e3f9f35628254ecbf736056664233493a264697066735822122009f90467f9436d05c2e1ecd7f0c68b92d72c2f83f806fec2c42b557d4b1d149764736f6c63430008110033",
    "linkReferences": {}
  },
  "methodIdentifiers": {
    "RENOUNCE_OWNERSHIP_CONFIRMATION_DELAY()": "ead3fbdf",
    "RENOUNCE_OWNERSHIP_CONFIRMATION_PERIOD()": "01bfba61",
    "acceptOwnership()": "79ba5097",
    "execute(uint256,address,uint256,bytes)": "44c028fe",
    "execute(uint256[],address[],uint256[],bytes[])": "13ced88d",
    "getData(bytes32)": "54f6127f",
    "getData(bytes32[])": "4e3e6e9c",
    "initialize(address,bytes32,bytes)": "98609bd5",
    "isValidSignature(bytes32,bytes)": "1626ba7e",
    "onERC1155BatchReceived(address,address,uint256[],uint256[],bytes)": "bc197c81",
    "onERC1155Received(address,address,uint256,uint256,bytes)": "f23a6e61",
    "onERC721Received(address,address,uint256,bytes)": "150b7a02",
    "owner()": "8da5cb5b",
    "pendingOwner()": "e30c3978",
    "renounceOwnership()": "715018a6",
    "setData(bytes32,bytes)": "7f23690c",
    "setData(bytes32[],bytes[])": "14a6e293",
    "supportsInterface(bytes4)": "01ffc9a7",
    "transferOwnership(address)": "f2fde38b",
    "universalReceiver(bytes32,bytes)": "6bb56a14"
  },
  "id": 94
}