{
  "abi": [
    {
      "inputs": [],
      "stateMutability": "nonpayable",
      "type": "constructor"
    },
    {
      "inputs": [],
      "name": "BatchExecuteParamsLengthMismatch",
      "type": "error"
    },
    {
      "inputs": [],
      "name": "BatchExecuteRelayCallParamsLengthMismatch",
      "type": "error"
    },
    {
      "inputs": [],
      "name": "DelegateCallDisallowedViaKeyManager",
      "type": "error"
    },
    {
      "inputs": [
        {
          "internalType": "bytes4",
          "name": "invalidFunction",
          "type": "bytes4"
        }
      ],
      "name": "InvalidERC725Function",
      "type": "error"
    },
    {
      "inputs": [
        {
          "internalType": "bytes",
          "name": "allowedCallsValue",
          "type": "bytes"
        }
      ],
      "name": "InvalidEncodedAllowedCalls",
      "type": "error"
    },
    {
      "inputs": [],
      "name": "InvalidLSP6Target",
      "type": "error"
    },
    {
      "inputs": [
        {
          "internalType": "bytes",
          "name": "payload",
          "type": "bytes"
        }
      ],
      "name": "InvalidPayload",
      "type": "error"
    },
    {
      "inputs": [
        {
          "internalType": "address",
          "name": "signer",
          "type": "address"
        },
        {
          "internalType": "uint256",
          "name": "invalidNonce",
          "type": "uint256"
        },
        {
          "internalType": "bytes",
          "name": "signature",
          "type": "bytes"
        }
      ],
      "name": "InvalidRelayNonce",
      "type": "error"
    },
    {
      "inputs": [
        {
          "internalType": "address",
          "name": "from",
          "type": "address"
        }
      ],
      "name": "InvalidWhitelistedCall",
      "type": "error"
    },
    {
      "inputs": [
        {
          "internalType": "uint256",
          "name": "totalValues",
          "type": "uint256"
        },
        {
          "internalType": "uint256",
          "name": "msgValue",
          "type": "uint256"
        }
      ],
      "name": "LSP6BatchExcessiveValueSent",
      "type": "error"
    },
    {
      "inputs": [
        {
          "internalType": "uint256",
          "name": "totalValues",
          "type": "uint256"
        },
        {
          "internalType": "uint256",
          "name": "msgValue",
          "type": "uint256"
        }
      ],
      "name": "LSP6BatchInsufficientValueSent",
      "type": "error"
    },
    {
      "inputs": [
        {
          "internalType": "address",
          "name": "from",
          "type": "address"
        }
      ],
      "name": "NoCallsAllowed",
      "type": "error"
    },
    {
      "inputs": [
        {
          "internalType": "address",
          "name": "from",
          "type": "address"
        }
      ],
      "name": "NoPermissionsSet",
      "type": "error"
    },
    {
      "inputs": [
        {
          "internalType": "address",
          "name": "from",
          "type": "address"
        },
        {
          "internalType": "address",
          "name": "to",
          "type": "address"
        },
        {
          "internalType": "bytes4",
          "name": "selector",
          "type": "bytes4"
        }
      ],
      "name": "NotAllowedCall",
      "type": "error"
    },
    {
      "inputs": [
        {
          "internalType": "address",
          "name": "from",
          "type": "address"
        },
        {
          "internalType": "string",
          "name": "permission",
          "type": "string"
        }
      ],
      "name": "NotAuthorised",
      "type": "error"
    },
    {
      "anonymous": false,
      "inputs": [
        {
          "indexed": true,
          "internalType": "bytes4",
          "name": "selector",
          "type": "bytes4"
        },
        {
          "indexed": true,
          "internalType": "uint256",
          "name": "value",
          "type": "uint256"
        }
      ],
      "name": "Executed",
      "type": "event"
    },
    {
      "anonymous": false,
      "inputs": [
        {
          "indexed": false,
          "internalType": "uint8",
          "name": "version",
          "type": "uint8"
        }
      ],
      "name": "Initialized",
      "type": "event"
    },
    {
      "anonymous": false,
      "inputs": [
        {
          "indexed": true,
          "internalType": "address",
          "name": "previousOwner",
          "type": "address"
        },
        {
          "indexed": true,
          "internalType": "address",
          "name": "newOwner",
          "type": "address"
        }
      ],
      "name": "OwnershipTransferred",
      "type": "event"
    },
    {
      "inputs": [
        {
          "internalType": "bytes",
          "name": "payload",
          "type": "bytes"
        }
      ],
      "name": "execute",
      "outputs": [
        {
          "internalType": "bytes",
          "name": "",
          "type": "bytes"
        }
      ],
      "stateMutability": "payable",
      "type": "function"
    },
    {
      "inputs": [
        {
          "internalType": "uint256[]",
          "name": "values",
          "type": "uint256[]"
        },
        {
          "internalType": "bytes[]",
          "name": "payloads",
          "type": "bytes[]"
        }
      ],
      "name": "execute",
      "outputs": [
        {
          "internalType": "bytes[]",
          "name": "",
          "type": "bytes[]"
        }
      ],
      "stateMutability": "payable",
      "type": "function"
    },
    {
      "inputs": [
        {
          "internalType": "bytes",
          "name": "signature",
          "type": "bytes"
        },
        {
          "internalType": "uint256",
          "name": "nonce",
          "type": "uint256"
        },
        {
          "internalType": "bytes",
          "name": "payload",
          "type": "bytes"
        }
      ],
      "name": "executeRelayCall",
      "outputs": [
        {
          "internalType": "bytes",
          "name": "",
          "type": "bytes"
        }
      ],
      "stateMutability": "payable",
      "type": "function"
    },
    {
      "inputs": [
        {
          "internalType": "bytes[]",
          "name": "signatures",
          "type": "bytes[]"
        },
        {
          "internalType": "uint256[]",
          "name": "nonces",
          "type": "uint256[]"
        },
        {
          "internalType": "uint256[]",
          "name": "values",
          "type": "uint256[]"
        },
        {
          "internalType": "bytes[]",
          "name": "payloads",
          "type": "bytes[]"
        }
      ],
      "name": "executeRelayCall",
      "outputs": [
        {
          "internalType": "bytes[]",
          "name": "",
          "type": "bytes[]"
        }
      ],
      "stateMutability": "payable",
      "type": "function"
    },
    {
      "inputs": [
        {
          "internalType": "address",
          "name": "from",
          "type": "address"
        },
        {
          "internalType": "uint128",
          "name": "channelId",
          "type": "uint128"
        }
      ],
      "name": "getNonce",
      "outputs": [
        {
          "internalType": "uint256",
          "name": "",
          "type": "uint256"
        }
      ],
      "stateMutability": "view",
      "type": "function"
    },
    {
      "inputs": [
        {
          "internalType": "address",
          "name": "_target",
          "type": "address"
        },
        {
          "internalType": "address",
          "name": "_owner",
          "type": "address"
        },
        {
          "internalType": "address",
          "name": "_futurePassIdentityRegistry",
          "type": "address"
        }
      ],
      "name": "initialize",
      "outputs": [],
      "stateMutability": "nonpayable",
      "type": "function"
    },
    {
      "inputs": [
        {
          "internalType": "bytes32",
          "name": "dataHash",
          "type": "bytes32"
        },
        {
          "internalType": "bytes",
          "name": "signature",
          "type": "bytes"
        }
      ],
      "name": "isValidSignature",
      "outputs": [
        {
          "internalType": "bytes4",
          "name": "magicValue",
          "type": "bytes4"
        }
      ],
      "stateMutability": "view",
      "type": "function"
    },
    {
      "inputs": [],
      "name": "owner",
      "outputs": [
        {
          "internalType": "address",
          "name": "",
          "type": "address"
        }
      ],
      "stateMutability": "view",
      "type": "function"
    },
    {
      "inputs": [],
      "name": "renounceOwnership",
      "outputs": [],
      "stateMutability": "nonpayable",
      "type": "function"
    },
    {
      "inputs": [
        {
          "internalType": "bytes4",
          "name": "interfaceId",
          "type": "bytes4"
        }
      ],
      "name": "supportsInterface",
      "outputs": [
        {
          "internalType": "bool",
          "name": "",
          "type": "bool"
        }
      ],
      "stateMutability": "view",
      "type": "function"
    },
    {
      "inputs": [],
      "name": "target",
      "outputs": [
        {
          "internalType": "address",
          "name": "",
          "type": "address"
        }
      ],
      "stateMutability": "view",
      "type": "function"
    },
    {
      "inputs": [
        {
          "internalType": "address",
          "name": "newOwner",
          "type": "address"
        }
      ],
      "name": "transferOwnership",
      "outputs": [],
      "stateMutability": "nonpayable",
      "type": "function"
    }
  ],
  "bytecode": {
    "object": "0x608060405234801561001057600080fd5b5061001961001e565b6100de565b600054610100900460ff161561008a5760405162461bcd60e51b815260206004820152602760248201527f496e697469616c697a61626c653a20636f6e747261637420697320696e697469604482015266616c697a696e6760c81b606482015260840160405180910390fd5b60005460ff90811610156100dc576000805460ff191660ff9081179091556040519081527f7f26b83ff96e1f2b6a682f133852f6798a09c465da95921460cefb38474024989060200160405180910390a15b565b6124d880620000ee6000396000f3fe6080604052600436106100a75760003560e01c8063b44581d911610064578063b44581d914610196578063bd68663a1461020b578063bf3e1f7b1461022b578063c0c53b8b1461023e578063d4b839921461025e578063f2fde38b1461027c57600080fd5b806301ffc9a7146100ac57806309c5eabe146100e15780631626ba7e14610101578063715018a61461013a5780638da5cb5b14610151578063902d5fa014610183575b600080fd5b3480156100b857600080fd5b506100cc6100c7366004611bae565b61029c565b60405190151581526020015b60405180910390f35b6100f46100ef366004611c19565b6102ee565b6040516100d89190611caa565b34801561010d57600080fd5b5061012161011c366004611d80565b610302565b6040516001600160e01b031990911681526020016100d8565b34801561014657600080fd5b5061014f61035a565b005b34801561015d57600080fd5b506033546001600160a01b03165b6040516001600160a01b0390911681526020016100d8565b6100f4610191366004611dc6565b61036e565b3480156101a257600080fd5b506101fd6101b1366004611e4c565b6001600160a01b03821660009081526066602090815260408083206001600160801b03851684529091529020546fffffffffffffffffffffffffffffffff19608083901b161792915050565b6040519081526020016100d8565b61021e610219366004611ed3565b610386565b6040516100d89190612014565b61021e610239366004612076565b610551565b34801561024a57600080fd5b5061014f6102593660046120d5565b6106c7565b34801561026a57600080fd5b506065546001600160a01b031661016b565b34801561028857600080fd5b5061014f610297366004612118565b610800565b60006001600160e01b03198216633ed0dd0560e21b14806102cd57506001600160e01b03198216630b135d3f60e11b145b806102e857506301ffc9a760e01b6001600160e01b03198316145b92915050565b60606102fb348484610898565b9392505050565b60008061030f84846108f5565b606554909150610337906220000090610331906001600160a01b031684610919565b81161490565b610349576001600160e01b0319610352565b630b135d3f60e11b5b949350505050565b6103626109b4565b61036c6000610a0e565b565b606061037d8585348686610a60565b95945050505050565b8651606090861415806103995750858414155b806103a45750838214155b156103c25760405163b4d50d2160e01b815260040160405180910390fd5b6000826001600160401b038111156103dc576103dc611cbd565b60405190808252806020026020018201604052801561040f57816020015b60608152602001906001900390816103fa5790505b5090506000805b84811015610519573488888381811061043157610431612133565b9050602002013583610443919061215f565b925082111561047357604051630c28c92b60e21b8152600481018390523460248201526044015b60405180910390fd5b6104eb8b828151811061048857610488612133565b60200260200101518b8b848181106104a2576104a2612133565b905060200201358a8a858181106104bb576104bb612133565b905060200201358989868181106104d4576104d4612133565b90506020028101906104e69190612172565b610a60565b8382815181106104fd576104fd612133565b60200260200101819052506105128160010190565b9050610416565b50348110156105445760405163528c345b60e11b81526004810182905234602482015260440161046a565b5098975050505050505050565b6060838214610573576040516355a187db60e01b815260040160405180910390fd5b6000826001600160401b0381111561058d5761058d611cbd565b6040519080825280602002602001820160405280156105c057816020015b60608152602001906001900390816105ab5790505b5090506000805b8481101561069257348888838181106105e2576105e2612133565b90506020020135836105f4919061215f565b925082111561061f57604051630c28c92b60e21b81526004810183905234602482015260440161046a565b61066488888381811061063457610634612133565b9050602002013587878481811061064d5761064d612133565b905060200281019061065f9190612172565b610898565b83828151811061067657610676612133565b602002602001018190525061068b8160010190565b90506105c7565b50348110156106bd5760405163528c345b60e11b81526004810182905234602482015260440161046a565b5095945050505050565b600054610100900460ff16158080156106e75750600054600160ff909116105b806107015750303b158015610701575060005460ff166001145b6107645760405162461bcd60e51b815260206004820152602e60248201527f496e697469616c697a61626c653a20636f6e747261637420697320616c72656160448201526d191e481a5b9a5d1a585b1a5e995960921b606482015260840161046a565b6000805460ff191660011790558015610787576000805461ff0019166101001790555b61079083610a0e565b61079984610b76565b606780546001600160a01b0319166001600160a01b03841617905580156107fa576000805461ff0019169055604051600181527f7f26b83ff96e1f2b6a682f133852f6798a09c465da95921460cefb38474024989060200160405180910390a15b50505050565b6108086109b4565b6067546001600160a01b031663ae5e8f0f61082b6033546001600160a01b031690565b6040516001600160e01b031960e084901b1681526001600160a01b0391821660048201529084166024820152604401600060405180830381600087803b15801561087457600080fd5b505af1158015610888573d6000803e3d6000fd5b5050505061089581610a0e565b50565b606060048210156108c0578282604051630d886ef360e21b815260040161046a9291906121b8565b6108c933610c26565b6108d4338484610c71565b60006108e1858585610d6e565b90506103526065805460ff60a01b19169055565b60008060006109048585610e8f565b9150915061091181610ed4565b509392505050565b6000806001600160a01b0384166354f6127f610946694b80742de2bf82acb36360b01b606087901b61101e565b6040518263ffffffff1660e01b815260040161096491815260200190565b600060405180830381865afa158015610981573d6000803e3d6000fd5b505050506040513d6000823e601f3d908101601f191682016040526109a991908101906121e7565b905061035281612254565b6033546001600160a01b0316331461036c5760405162461bcd60e51b815260206004820181905260248201527f4f776e61626c653a2063616c6c6572206973206e6f7420746865206f776e6572604482015260640161046a565b603380546001600160a01b038381166001600160a01b0319831681179093556040519116919082907f8be0079c531659141344cd1fd0a4f28419497f9722a3daafe3b4186f6b6457e090600090a35050565b60606004821015610a88578282604051630d886ef360e21b815260040161046a9291906121b8565b600060064687878787604051602001610aa69695949392919061227b565b60408051601f1981840301815291905290506000610ace88610ac8308561106a565b906108f5565b9050610ad981610c26565b610ae3818861109d565b610b065780878960405163c9bd9eb960e01b815260040161046a939291906122aa565b6001600160a01b038116600090815260666020908152604080832060808b901c84529091528120805491610b39836122d1565b9190505550610b49818686610c71565b6000610b56878787610d6e565b9050610b6a6065805460ff60a01b19169055565b98975050505050505050565b600054610100900460ff16610be15760405162461bcd60e51b815260206004820152602b60248201527f496e697469616c697a61626c653a20636f6e7472616374206973206e6f74206960448201526a6e697469616c697a696e6760a81b606482015260840161046a565b6001600160a01b038116610c085760405163fc85457960e01b815260040160405180910390fd5b606580546001600160a81b0319166001600160a01b03831617905550565b606554600160a01b900460ff1615610c5b57606554610895908290610c54906001600160a01b031682610919565b60806110db565b6065805460ff60a01b1916600160a01b17905550565b6000610c7d82846122ea565b90506001600160e01b03198116631fc8da4360e21b1480610cae57506001600160e01b031981166314a6e29360e01b145b80610cc957506001600160e01b0319811663f2fde38b60e01b145b15610cdb57610cd66109b4565b6107fa565b635d9feb8160e11b6001600160e01b0319821601610d4957606554600090610d0c906001600160a01b031686610919565b905080610d3757604051637949029560e11b81526001600160a01b038616600482015260240161046a565b610d4385828686611113565b506107fa565b604051630aea214760e21b81526001600160e01b03198216600482015260240161046a565b606083610d7b83856122ea565b6001600160e01b0319167f4004d18dc05f04c061c306cbb394d4083af494786ab828142d6118ab2c43a49260405160405180910390a360655460009081906001600160a01b0316865a908787604051610dd592919061231a565b600060405180830381858888f193505050503d8060008114610e13576040519150601f19603f3d011682016040523d82523d6000602084013e610e18565b606091505b50915091506000610e5f83836040518060400160405280601e81526020017f4c5350363a206661696c656420657865637574696e67207061796c6f6164000081525061129b565b90508051600003610e705780610e84565b80806020019051810190610e8491906121e7565b979650505050505050565b6000808251604103610ec55760208301516040840151606085015160001a610eb9878285856112b4565b94509450505050610ecd565b506000905060025b9250929050565b6000816004811115610ee857610ee861232a565b03610ef05750565b6001816004811115610f0457610f0461232a565b03610f515760405162461bcd60e51b815260206004820152601860248201527f45434453413a20696e76616c6964207369676e61747572650000000000000000604482015260640161046a565b6002816004811115610f6557610f6561232a565b03610fb25760405162461bcd60e51b815260206004820152601f60248201527f45434453413a20696e76616c6964207369676e6174757265206c656e67746800604482015260640161046a565b6003816004811115610fc657610fc661232a565b036108955760405162461bcd60e51b815260206004820152602260248201527f45434453413a20696e76616c6964207369676e6174757265202773272076616c604482015261756560f01b606482015260840161046a565b604080516001600160b01b0319841660208201526000602a82018190526001600160601b03198416602c8301529182910160405160208183030381529060405290508061035290612254565b6000828260405160200161107f929190612340565b60405160208183030381529060405280519060200120905092915050565b6001600160a01b0382166000908152606660209081526040808320608085901c84529091528120546110d3600160801b8461237f565b149392505050565b808216811461110e5760006110ef82611378565b90508381604051631ded6b7360e11b815260040161046a9291906123a1565b505050565b60006111236024600484866123c5565b61112c916123ef565b905060031981016111505760405163406b75d760e11b815260040160405180910390fd5b60006111606064604485876123c5565b611169916123ef565b90506000600183148061117c5750600283145b905060a484116000826111a15761119c6111958661167b565b8981161490565b6111a4565b60005b9050801580156111b2575081155b80156111bc575083155b156111d4576111d489896111cf886116ad565b6110db565b8180156111df575080155b156111f2576111f289896111cf886116ad565b610100888116148415801590611206575080155b15611218576112188a8a6102006110db565b8315611229575050505050506107fa565b818015611234575084155b15611244575050505050506107fa565b80801561124f575082155b801561125a57508415155b1561126a575050505050506107fa565b8180156112745750805b15611284575050505050506107fa565b61128f8a8989611703565b50505050505050505050565b606083156112aa5750816102fb565b6102fb8383611965565b6000807f7fffffffffffffffffffffffffffffff5d576e7357a4501ddfe92f46681b20a08311156112eb575060009050600361136f565b6040805160008082526020820180845289905260ff881692820192909252606081018690526080810185905260019060a0016020604051602081039080840390855afa15801561133f573d6000803e3d6000fd5b5050604051601f1901519150506001600160a01b0381166113685760006001925092505061136f565b9150600090505b94509492505050565b606060001982016113b057505060408051808201909152601181527005452414e534645524f574e45525348495607c1b602082015290565b60031982016113e65750506040805180820190915260118152704348414e47455045524d495353494f4e5360781b602082015290565b600119820161141857505060408051808201909152600d81526c20a22221a7a72a2927a62622a960991b602082015290565b600719820161144a57505060408051808201909152600d81526c414444455854454e53494f4e5360981b602082015290565b600f19820161147f57505060408051808201909152601081526f4348414e4745455854454e53494f4e5360801b602082015290565b601f1982016114c157505060408051808201909152601c81527f414444554e4956455253414c524543454956455244454c454741544500000000602082015290565b603f19820161150357505060408051808201909152601f81527f4348414e4745554e4956455253414c524543454956455244454c454741544500602082015290565b607f19820161153257505060408051808201909152600a8152695245454e5452414e435960b01b602082015290565b6203ffff1982016115605750506040805180820190915260078152665345544441544160c81b602082015290565b6107ff19820161158a57505060408051808201909152600481526310d0531360e21b602082015290565b611fff1982016115ba57505060408051808201909152600a81526914d510551250d0d0531360b21b602082015290565b617fff1982016115ec57505060408051808201909152600c81526b1111531151d0551150d0531360a21b602082015290565b61ffff1982016116185750506040805180820190915260068152654445504c4f5960d01b602082015290565b6101ff19820161164b57505060408051808201909152600d81526c5452414e5346455256414c554560981b602082015290565b621fffff19820161167657505060408051808201909152600481526329a4a3a760e11b602082015290565b919050565b60008161168b5750610400919050565b6003820361169c5750611000919050565b600482036116765750614000919050565b6000816116bd5750610800919050565b600182036116cf575062010000919050565b600282036116e1575062010000919050565b600382036116f25750612000919050565b600482036116765750618000919050565b60006117136044603084866123c5565b61171c9161240d565b60601c905060a882108015906000906117495761173d60a860a486886123c5565b611746916122ea565b90505b606554600090611762906001600160a01b03168861198f565b8051909150600081900361179457604051636cb6058760e01b81526001600160a01b038916600482015260240161046a565b6000806000805b8481101561192857846117af82601e61215f565b11156117d0578560405163187e77ab60e01b815260040161046a9190611caa565b60006117e8876117e184600261215f565b601c611a1c565b90506117f38161243b565b63ffffffff19908116900361182657604051636fd203c560e01b81526001600160a01b038e16600482015260240161046a565b60006118318261246f565b9050600060206118408461243b565b63ffffffff1916901b60601c9050600060c061185b8561243b565b63ffffffff1916901b90506001600160e01b0319808416148061188c575061188c6001600160a01b038e1684611b29565b97506001600160a01b0380831614806118b65750816001600160a01b03168d6001600160a01b0316145b96506001600160e01b031980821614806118e457508b80156118e457506001600160e01b03198b8116908216145b95508780156118f05750865b80156118f95750855b156119105750505050505050505050505050505050565b50505050601e81611921919061215f565b905061179b565b5060405163228a3de760e11b81526001600160a01b03808d166004830152891660248201526001600160e01b03198716604482015260640161046a565b8151156119755781518083602001fd5b8060405162461bcd60e51b815260040161046a9190611caa565b60606001600160a01b0383166354f6127f6119b9694b80742de2bf393a64c760b01b85851b61101e565b6040518263ffffffff1660e01b81526004016119d791815260200190565b600060405180830381865afa1580156119f4573d6000803e3d6000fd5b505050506040513d6000823e601f3d908101601f191682016040526102fb91908101906121e7565b606081611a2a81601f61215f565b1015611a695760405162461bcd60e51b815260206004820152600e60248201526d736c6963655f6f766572666c6f7760901b604482015260640161046a565b611a73828461215f565b84511015611ab75760405162461bcd60e51b8152602060048201526011602482015270736c6963655f6f75744f66426f756e647360781b604482015260640161046a565b606082158015611ad65760405191506000825260208201604052611b20565b6040519150601f8416801560200281840101858101878315602002848b0101015b81831015611b0f578051835260209283019201611af7565b5050858452601f01601f1916604052505b50949350505050565b604080516001600160e01b03198316602480830191909152825180830390910181526044909101909152602080820180516001600160e01b03166301ffc9a760e01b178152825160009392849283928392918391908a617530fa92503d91506000519050828015611b9b575060208210155b8015610e84575015159695505050505050565b600060208284031215611bc057600080fd5b81356001600160e01b0319811681146102fb57600080fd5b60008083601f840112611bea57600080fd5b5081356001600160401b03811115611c0157600080fd5b602083019150836020828501011115610ecd57600080fd5b60008060208385031215611c2c57600080fd5b82356001600160401b03811115611c4257600080fd5b611c4e85828601611bd8565b90969095509350505050565b60005b83811015611c75578181015183820152602001611c5d565b50506000910152565b60008151808452611c96816020860160208601611c5a565b601f01601f19169290920160200192915050565b6020815260006102fb6020830184611c7e565b634e487b7160e01b600052604160045260246000fd5b604051601f8201601f191681016001600160401b0381118282101715611cfb57611cfb611cbd565b604052919050565b60006001600160401b03821115611d1c57611d1c611cbd565b50601f01601f191660200190565b600082601f830112611d3b57600080fd5b8135611d4e611d4982611d03565b611cd3565b818152846020838601011115611d6357600080fd5b816020850160208301376000918101602001919091529392505050565b60008060408385031215611d9357600080fd5b8235915060208301356001600160401b03811115611db057600080fd5b611dbc85828601611d2a565b9150509250929050565b60008060008060608587031215611ddc57600080fd5b84356001600160401b0380821115611df357600080fd5b611dff88838901611d2a565b9550602087013594506040870135915080821115611e1c57600080fd5b50611e2987828801611bd8565b95989497509550505050565b80356001600160a01b038116811461167657600080fd5b60008060408385031215611e5f57600080fd5b611e6883611e35565b915060208301356001600160801b0381168114611e8457600080fd5b809150509250929050565b60008083601f840112611ea157600080fd5b5081356001600160401b03811115611eb857600080fd5b6020830191508360208260051b8501011115610ecd57600080fd5b60008060008060008060006080888a031215611eee57600080fd5b6001600160401b038089351115611f0457600080fd5b883589018a601f820112611f1757600080fd5b803582811115611f2957611f29611cbd565b8060051b611f3960208201611cd3565b9182526020818401810192908101908e841115611f5557600080fd5b6020850192505b83831015611f93578583351115611f7257600080fd5b611f828f60208535880101611d2a565b825260209283019290910190611f5c565b9b5050505060208a0135905081811115611fac57600080fd5b611fb88b828c01611e8f565b909850965050604089013581811115611fd057600080fd5b611fdc8b828c01611e8f565b909650945050606089013581811115611ff457600080fd5b6120008b828c01611e8f565b999c989b5096995094979396939450505050565b6000602080830181845280855180835260408601915060408160051b870101925083870160005b8281101561206957603f19888603018452612057858351611c7e565b9450928501929085019060010161203b565b5092979650505050505050565b6000806000806040858703121561208c57600080fd5b84356001600160401b03808211156120a357600080fd5b6120af88838901611e8f565b909650945060208701359150808211156120c857600080fd5b50611e2987828801611e8f565b6000806000606084860312156120ea57600080fd5b6120f384611e35565b925061210160208501611e35565b915061210f60408501611e35565b90509250925092565b60006020828403121561212a57600080fd5b6102fb82611e35565b634e487b7160e01b600052603260045260246000fd5b634e487b7160e01b600052601160045260246000fd5b808201808211156102e8576102e8612149565b6000808335601e1984360301811261218957600080fd5b8301803591506001600160401b038211156121a357600080fd5b602001915036819003821315610ecd57600080fd5b60208152816020820152818360408301376000818301604090810191909152601f909201601f19160101919050565b6000602082840312156121f957600080fd5b81516001600160401b0381111561220f57600080fd5b8201601f8101841361222057600080fd5b805161222e611d4982611d03565b81815285602083850101111561224357600080fd5b61037d826020830160208601611c5a565b80516020808301519190811015612275576000198160200360031b1b821691505b50919050565b868152856020820152846040820152836060820152818360808301376000910160800190815295945050505050565b60018060a01b038416815282602082015260606040820152600061037d6060830184611c7e565b6000600182016122e3576122e3612149565b5060010190565b6001600160e01b031981358181169160048510156123125780818660040360031b1b83161692505b505092915050565b8183823760009101908152919050565b634e487b7160e01b600052602160045260246000fd5b601960f81b8152606083901b6001600160601b03191660028201528151600090612371816016850160208701611c5a565b919091016016019392505050565b60008261239c57634e487b7160e01b600052601260045260246000fd5b500690565b6001600160a01b038316815260406020820181905260009061035290830184611c7e565b600080858511156123d557600080fd5b838611156123e257600080fd5b5050820193919092039150565b803560208310156102e857600019602084900360031b1b1692915050565b6001600160601b031981358181169160148510156123125760149490940360031b84901b1690921692915050565b8051602082015163ffffffff19808216929190601c83101561246757808184601c0360031b1b83161693505b505050919050565b805160208201516001600160e01b031980821692919060048310156124675760049290920360031b82901b16169291505056fea2646970667358221220b31a53e9cf59a66208226af01e04487f149c710d81e50484058608678752342f64736f6c63430008110033",
    "linkReferences": {}
  },
  "methodIdentifiers": {
    "execute(bytes)": "09c5eabe",
    "execute(uint256[],bytes[])": "bf3e1f7b",
    "executeRelayCall(bytes,uint256,bytes)": "902d5fa0",
    "executeRelayCall(bytes[],uint256[],uint256[],bytes[])": "bd68663a",
    "getNonce(address,uint128)": "b44581d9",
    "initialize(address,address,address)": "c0c53b8b",
    "isValidSignature(bytes32,bytes)": "1626ba7e",
    "owner()": "8da5cb5b",
    "renounceOwnership()": "715018a6",
    "supportsInterface(bytes4)": "01ffc9a7",
    "target()": "d4b83992",
    "transferOwnership(address)": "f2fde38b"
  },
  "id": 96
}